:1000000012C043C02BC02AC029C028C027C026C0A8
:1000100025C024C023C022C021C020C01FC01EC0D4
:100020001DC01CC01BC011241FBECFE5D4E0DEBF25
:10003000CDBF10E0A0E6B0E0E8E5F3E002C0059037
:100040000D92A236B107D9F720E0A2E6B0E001C0D8
:100050001D92A636B207E1F70FD17CC1D1CF979898
:100060000895979A08958A98929A85B7816085BF76
:100070008BB780648BBF8F9AF2DFBC9A7894089517
:100080008FB9779BFECF8FB108951F920F920FB655
:100090000F9211248F93829905C06E9A81E080930C
:1000A000620004C0109262006E9877988F910F9052
:1000B0000FBE0F901F901895AD9A85E38A95F1F7C2
:1000C0000000AD98089595B3907F95BB95B3829548
:1000D0008F70982B95BBF0CFCF93C82FAC9AF3DFDE
:1000E0008C2F8295807FEFDF8AE78A95F1F700C039
:1000F000CF910895CF93C82FAC98E5DF8C2F8295D0
:10010000807FE1DF80E78A95F1F7CF91089581E064
:10011000F1DF8FE99FE00197F1F700C0000008953B
:1001200084B38F6384BB85B3807C85BB8FE295E706
:100130000197F1F700C0000080E3C5DF8FE097E290
:100140000197F1F700C00000B7DF8FEC97E001974F
:10015000F1F700C00000B0DF8FEC97E00197F1F7F6
:1001600000C0000080E2AFDF8FE097E20197F1F777
:1001700000C0000088E2BEDF8CE0BCDF86E0BADFB2
:10018000C6CF82E0B7DF8FE99FE00197F1F700C0AB
:1001900000000895623059F018F4613031F008958C
:1001A000633039F0643039F00895805805C08054C8
:1001B00003C0805701C080539DCFCF93DF93EC01E4
:1001C0008991882311F088DFFBCFDF91CF910895CB
:1001D0000F931F93CF93DF938B0128E0829FC00181
:1001E0001124806487DFE801085F1F4F899174DF65
:1001F000C017D107D9F7DF91CF911F910F910895C3
:10020000CF93DF93C82FD62FC5DFC09365008091B1
:10021000650080316CF480E690E0CFDF82E08A9563
:10022000F1F700C0809165008F5F80936500EFCF8C
:100230006D2F8C2FDF91CF91ADCFCF93DF93CDB7C3
:10024000DEB72A970FB6F894DEBF0FBECDBF2AE007
:10025000AE014F5F5F4F3FD0CE010196AEDF2A96D1
:100260000FB6F894DEBF0FBECDBFDF91CF910895DA
:1002700091DF80E690E0A1CFF6DECBE0D4E01AE09B
:10028000809162008823E1F3779BFECF8FB180934A
:100290006300809163008730A1F030F48630B9F4B8
:1002A000E0DE1093640013C0883079F0893079F46F
:1002B00080B3881F8827881F9C2F981B9093640009
:1002C00006C0CDDEC093640002C0D093640080916C
:1002D00064008FB9D5CFBB272A3051F4992342F45B
:1002E000BDE290958095709561957F4F8F4F9F4FA0
:1002F00001C0BB27FA01A62F621771058105910580
:10030000330B30FB66F0AA27660F771F881F991FF3
:10031000AA1FA21710F0A21B63953850A9F7A05D81
:10032000AA3308F0A95DA19336F7B111B1931082F9
:10033000CA0100C0DC01FC01672F71917723E1F74E
:10034000329704C07C916D9370836291AE17BF07A2
:08035000C8F30895F894FFCFF3
:02035800200083
:00000001FF
