:1000000012C02CC02BC02AC029C028C027C026C0BF
:1000100025C024C023C022C021C020C01FC01EC0D4
:100020001DC01CC01BC011241FBECFE5D4E0DEBF25
:10003000CDBF10E0A0E6B0E0E2E7F4E002C005903A
:100040000D92AC39B107D9F720E0ACE9B0E001C0BE
:100050001D92A23AB207E1F77ED109C2D1CF959A9B
:1000600085E38A95F1F700009598089592B3907F03
:1000700092BB92B382958F70982B92BBF0CFCF93A7
:10008000C82F949AF3DF8C2F8295807FEFDF8AE769
:100090008A95F1F700C0CF910895CF93C82F949817
:1000A000E5DF8C2F8295807FE1DF80E78A95F1F78D
:1000B000CF91089581E0F1DF8FE99FE00197F1F79B
:1000C00000C00000089581B38F6381BB82B3807C40
:1000D00082BB8FE295E70197F1F700C0000080E353
:1000E000C5DF8FE097E20197F1F700C00000B7DFAE
:1000F0008FEC97E00197F1F700C00000B0DF8FECC4
:1001000097E00197F1F700C0000080E2AFDF8FE0D9
:1001100097E20197F1F700C0000088E2BEDF8CE0B3
:10012000BCDF86E0BADFC6CF82E0B7DF8FE99FE0B1
:100130000197F1F700C000000895623059F018F4FB
:10014000613031F00895633039F0643039F008954A
:10015000805805C0805403C0805701C080539DCF94
:10016000CF93DF93EC018991882311F088DFFBCFD7
:10017000DF91CF9108950F931F93CF93DF938B015E
:1001800028E0829FC0011124806487DFE801085FB6
:100190001F4F899174DFC017D107D9F7DF91CF9135
:1001A0001F910F910895CF93DF93C82FD62FC5DFEE
:1001B000C0939C0080919C0080316CF48DE890E0AD
:1001C000CFDF82E08A95F1F700C080919C008F5FBD
:1001D00080939C00EFCF6D2F8C2FDF91CF91ADCF0F
:1001E000CF93DF93CDB7DEB72A970FB6F894DEBF73
:1001F0000FBECDBF2AE0AE014F5F5F4FF9D0CE01F9
:100200000196AEDF2A960FB6F894DEBF0FBECDBFC3
:10021000DF91CF91089591DF8DE890E0A1CF81111A
:1002200009C087B38F6E87BB88B3876C88BB6C9A15
:10023000689A01C0BC9A6E9A8FEC97E00197F1F72B
:1002400000C0000008956E987798089598B321E053
:1002500030E001C0220F8A95EAF72095292328BBB8
:10026000089598B321E030E001C0220F8A95EAF7A3
:10027000292B28BB08958FB9779BFECF8FB10895A6
:10028000CF93DF938530E8F4C62FE82FF0E0E05AF3
:10029000FF4FD0818D2FDADF8AE18A95F1F700C018
:1002A0008C2FE9DF8AE18A95F1F700C08FEFE3DF59
:1002B000C82F8D2FD6DF8AE18A95F1F700C08C2FE9
:1002C00001C080E0DF91CF910895CF93DF93C0E02C
:1002D000D0E068E08C2FD4DF9FEF980FFE01E3564B
:1002E000FF4F953010F4808301C010822196C530F5
:1002F000D10579F7DF91CF9108951F93CF93DF93C5
:100300008530C0F4E82FF0E0E356FF4F9081992349
:1003100089F0C82FD0E010E0CD1305C066E08C2F27
:10032000AFDF182F03C067E08D2FAADFDF5FD53066
:1003300099F701C010E0812FDF91CF911F910895AF
:10034000853038F4E82FF0E0E356FF4F90819111AB
:1003500097CF80E00895B7DEADDE80E060DF85E610
:1003600090E0FEDE62E080E0E8DE86E790E0F8DE26
:10037000ACDF63E080E0E1DE87E890E0F1DE0DE9EC
:1003800010E0E8016991611104C085E890E0E8DEC1
:1003900004C070E080E090E023DF8DE890E0E0DED4
:1003A00080E0C23AD80771F764E080E0C6DE8FE8EB
:1003B00090E0D6DEC0E0F80181918F01811103C089
:1003C00087E990E007C069E08C2FBADF8A30C1F777
:1003D00089E990E0C5DE8DE890E0C2DECF5FC530F0
:1003E00051F78FE19EE40197F1F700C00000C0CF04
:1003F000BB272A3051F4992342F4BDE290958095B1
:10040000709561957F4F8F4F9F4F01C0BB27FA01B9
:10041000A62F6217710581059105330B30FB66F03D
:10042000AA27660F771F881F991FAA1FA21710F00F
:10043000A21B63953850A9F7A05DAA3308F0A95D07
:10044000A19336F7B111B1931082CA0100C0DC014B
:10045000FC01672F71917723E1F7329704C07C91FB
:100460006D9370836291AE17BF07C8F30895F89437
:02047000FFCFBC
:10047200000102060720534D4320436F6E74726FD2
:100482006C6C657220002D2D2D2D2D2D2D2D2D2DD9
:100492002D2D2D2D2D2D00536C6F743A20200053DD
:0C04A200746174653A20003000310000E5
:00000001FF
