:1000000012C02CC02BC02AC029C028C027C026C0BF
:1000100025C024C023C022C021C020C01FC01EC0D4
:100020001DC01CC01BC011241FBECFE5D4E0DEBF25
:10003000CDBF10E0A0E6B0E0ECE7F4E002C0059030
:100040000D92A23AB107D9F720E0A2EAB0E001C0D0
:100050001D92A93AB207E1F76AD10EC2D1CFCF9370
:10006000C82F63E080E0F6D085E690E0D0D06C2F1A
:1000700070E080E090E0CF910AC1CF93C82F62E09A
:1000800080E0E8D08CE690E0C2D06C2F70E080E099
:1000900090E0CF91FCC0CF93DF938530F8F4C62F6A
:1000A000E82FF0E0E05AFF4FD0818D2F26D18AE172
:1000B0008A95F1F700C08C2F35D19AE19A95F1F726
:1000C00000C08FEF2FD1C82F8D2F22D187EC90E069
:1000D0000197F1F700C000008C2F01C080E0DF9194
:1000E000CF910895CF93DF93C0E0D0E068E08C2FEC
:1000F000D2DF882321F0FE01EC55FF4F808321964B
:10010000C530D10599F7DF91CF910895959A85E390
:100110008A95F1F700009598089592B3907F92BB6D
:1001200092B382958F70982B92BBF0CFCF93C82F4C
:10013000949AF3DF8C2F8295807FEFDF8AE78A9590
:10014000F1F700C0CF910895CF93C82F9498E5DFC1
:100150008C2F8295807FE1DF80E78A95F1F7CF9140
:10016000089581E0F1DF8FE99FE00197F1F700C08A
:100170000000089581B38F6381BB82B3807C82BB12
:100180008FE295E70197F1F700C0000080E3C5DF3B
:100190008FE097E20197F1F700C00000B7DF8FEC26
:1001A00097E00197F1F700C00000B0DF8FEC97E017
:1001B0000197F1F700C0000080E2AFDF8FE097E227
:1001C0000197F1F700C0000088E2BEDF8CE0BCDFE1
:1001D00086E0BADFC6CF82E0B7DF8FE99FE0019704
:1001E000F1F700C000000895623059F018F4613052
:1001F00031F00895633039F0643039F00895805853
:1002000005C0805403C0805701C080539DCFCF9359
:10021000DF93EC018991882311F088DFFBCFDF9118
:10022000CF9108950F931F93CF93DF938B0128E015
:10023000829FC0011124806487DFE801085F1F4F9F
:10024000899174DFC017D107D9F7DF91CF911F9142
:100250000F910895CF93DF93C82FD62FC5DFC0939A
:10026000A3008091A30080316CF487E990E0CFDF98
:1002700082E08A95F1F700C08091A3008F5F8093A0
:10028000A300EFCF6D2F8C2FDF91CF91ADCFCF9308
:10029000DF93CDB7DEB72A970FB6F894DEBF0FBE57
:1002A000CDBF2AE0AE014F5F5F4FA7D0CE010196D0
:1002B000AEDF2A960FB6F894DEBF0FBECDBFDF913A
:1002C000CF91089591DF87E990E0A1CF811109C016
:1002D00087B38F6E87BB88B3876C88BB6C9A689A2C
:1002E00001C0BC9A6E9A8FEC97E00197F1F700C0BD
:1002F000000008956E987798089598B321E030E053
:1003000001C0220F8A95EAF72095292328BB08957A
:1003100098B321E030E001C0220F8A95EAF7292B3B
:1003200028BB08958FB9779BFECF8FB1089522DF48
:1003300018DF80E0CBDFD6DE61E080E08BDF83E793
:1003400090E065DFC0E0D0E0FE01EC55FF4F60813A
:1003500070E080E090E09BDF2196C530D105A1F7E9
:100360008AE790E054DF6091A20070E080E090E0C6
:100370008EDF8DE790E04BDF62E080E06BDF8FE7A0
:1003800090E045DF68E08091A20085DE682F70E094
:1003900080E090E07CDF63E080E05CDF8CE890E070
:1003A00036DF66E08091A20076DE682F70E080E0A4
:1003B00090E06DDF64E080E04DDF89E990E027DFC9
:1003C00069E08091A20067DE682F70E080E090E035
:1003D0005EDF2FEF89E698E1215080409040E1F701
:1003E00000C000008091A2008F5F8093A200853042
:1003F00008F4A2CF1092A2009FCFBB272A3051F45D
:10040000992342F4BDE290958095709561957F4F58
:100410008F4F9F4F01C0BB27FA01A62F62177105AE
:1004200081059105330B30FB66F0AA27660F771F15
:10043000881F991FAA1FA21710F0A21B639538509E
:10044000A9F7A05DAA3308F0A95DA19336F7B11111
:10045000B1931082CA0100C0DC01FC01672F7191C9
:100460007723E1F7329704C07C916D93708362919A
:0C047000AE17BF07C8F30895F894FFCF43
:10047C000001020607526563763A200053656E74DC
:10048C003A2000536C6F743A200020280029005346
:10049C006C61766520747970653A20004F6E20632C
:1004AC006F6D6D616E643A20005374617475733AAC
:0204BC0020001E
:00000001FF
